:10000000FCFF0020E9210000A1210000A121000047
:10001000A1210000A1210000A1210000A1210000D8
:10002000A1210000A1210000A1210000A1210000C8
:10003000A1210000A1210000A1210000A1210000B8
:10004000A1210000A1210000A1210000A1210000A8
:10005000A1210000A1210000A1210000A121000098
:10006000A1210000A1210000A1210000A121000088
:10007000A1210000A1210000A1210000A121000078
:10008000A1210000A1210000A1210000A121000068
:10009000A1210000A1210000A1210000A121000058
:1000A000A1210000A1210000A1210000A121000048
:1000B000A1210000A1210000A1210000A121000038
:1000C000A1210000A1210000A1210000A121000028
:1000D000A1210000A1210000A1210000A121000018
:1000E000A1210000A1210000A1210000A121000008
:1000F000A1210000A1210000A1210000A1210000F8
:1021E80081B000F011F8FFF7DBFF00F0BFFBFFF74D
:1021F800EDFF00F06DFBFFF757FFFFF78BFFFFF7D1
:06220800A3FFFCE7FEE766
:10213C0081B01CF8019B0BF8019BBBEB0A0FF8D18B
:04214C0001B0704727
:10206C0081B04FF000094FF0000CBDEB0A0F04DCFF
:10207C00BDEB0B0F01DBD446EA464BF8049BBBEBE4
:10208C000A0FFAD1BCEB0A0F05DDE246D9F800B015
:0A209C000BF1040BF1E701B07047EF
:1020B00081B0CDF800E00E4801460020FFF774FF24
:1020C00042F280510120FFF73FFF0A480221FFF74B
:1020D00095FF44F67D77C0F2120700BF7F1EFDD149
:1020E00000BF00BF00BF00BFDDF800E001B07047D7
:0820F000F820000000000020B0
:101FA80081B0CDF800E015E00846FFF783FD1CE09E
:101FB8000846FFF779FE18E00846FFF72DFE14E003
:101FC8000846FFF73BFE10E00846FFF713FE0CE05B
:101FD80001200AE00028E7D00128E9D00228EBD048
:101FE8000328EDD00428EFD0F2E7DDF800E001B0D7
:021FF800704730
:101ABC0081B0CDF800E0011D0A68016808461146A6
:101ACC00034AFFF777FF0020DDF800E001B0704714
:041ADC00C42600001C
:1019C00081B0CDF800E013460A4601460348FFF710
:1019D0009FFEDDF800E001B0704700BF0028004026
:1017100087B0CDF800E08446059106921846FFF7A1
:10172000FBFE6046FFF746FD06996046FFF754FD55
:10173000BCF8005040F6017445EA0404ACF80040DF
:1017400001AC2046FFF764FD069C402C05D1059DA9
:10175000019CB4FBF5F4A0B209E0069C802C05D1F5
:10176000059D049CB4FBF5F4A0B200E000200CF150
:10177000060420801D4CA44506D11D4D1D4C25603E
:101780001D4D1E4C25601CE01D4CA44506D11D4D71
:10179000184C25601C4D194C256012E01B4CA445CB
:1017A00006D11B4D134C25601A4D144C256008E0E2
:1017B000194CA44505D1194D0E4C2560184D0F4C00
:1017C000256040F201016046FFF71AFD6046FFF711
:1017D0007FFD03216046FFF7F5FC02216046FFF71D
:1017E00007FDDDF800E007B0704700BF00200040B3
:1017F0007D160000A0000020ED160000A4000020CF
:1018000000240040A1160000251800000028004018
:101810001116000059160000002C00404918000065
:041820003516000079
:1012100082B0CDF800E004462849096801F4E06195
:10122000090A08462549096801F0E061090E0A46E5
:10123000214601911146FFF77FFB019908601F4984
:10124000096801F07001090908461C49096801F4A0
:10125000E001090D0A4604F2080101911146FFF769
:101260006BFB019908601549096801F070010909D3
:1012700008461249096801F0E041090F0A4604F2E4
:101280000C0101911146FFF757FB019908600B49CA
:10129000096801F0070108460849096801F4E021DE
:1012A000090C0A46211D01911146FFF745FB0199E2
:1012B0000860DDF800E002B0704700BF080401409C
:1009380081B0CDF800E002460846FFF7FFFBC3B2DE
:1009480071E0424A126802F00102D2B140F201009D
:10095800FFF7DEFB3D4A126802F001028AB13C4A09
:10096800126802F400422AB14FF4FA3292FBF3F211
:10097800104666E048F20002B2FBF3F292B290B27F
:100988005FE0344A1268B2FBF3F2104659E02F4A8E
:10099800126802F00202D2B140F20200FFF7B8FB7F
:1009A8002A4A126802F002028AB1294A126802F43D
:1009B80000422AB14FF4FA3292FBF3F2104640E0BB
:1009C80048F20002B2FBF3F292B290B239E0224A46
:1009D8001268B2FBF3F2104633E0204A1268B2FB09
:1009E800F3F210462DE01A4A126802F400422AB1C6
:1009F8004FF4FA3292FBF3F2104622E048F200027A
:100A0800B2FBF3F292B290B21BE0FFF79FFBB0FB90
:100A1800F3F2104615E0124A1268B2FBF3F21046E0
:100A28000FE000200DE0002A3FF48BAF052AAED07E
:100A3800012AD2D0022AD6D0032AE6D0042AEAD044
:100A4800EFE7DDF800E001B0704700BF480401405F
:100A580030040140A8000020AC0000204000002025
:040A68004400002026
:1001440081B0012109B2814009B208B201B07047FF
:1001180081B0074A07490A600749096841EA0002AD
:1001280005490A60012203490A6001B0704700BF0F
:0C0138005A69000000040140500401401E
:1001540082B01748006800F4E02114E015480190CB
:1001640023E01548019020E0144801901DE0144854
:1001740001901AE01348019017E01348019014E02D
:100184000020019011E00029E8D0B1F5803FE8D0CB
:10019400B1F5003FE8D0B1F5403FE8D0B1F5802F8C
:1001A400E8D0B1F5A02FE8D0EAE7019802B0704793
:1001B4000404014060E31600C0C62D00808D5B007E
:0C01C400001BB70000366E01006CDC026E
:1015180081B0CDF800E040F2000A814609F1D80117
:1015280009788A453AD20C210AFB01F109EB01013D
:101538008B460BF1080109781F2915D10BF1080119
:101548000978CCB20BF1060109888BB20BF10401C2
:1015580009888AB2DBF80010084691B2002210B45C
:10156800FFF780FA01B014E00BF108010978CCB25A
:101578000BF1060109888BB20BF1040109888AB2C4
:10158800DBF80010084691B2FF2210B4FFF76AFAA0
:1015980001B00AF1010A5FFA8AFABFE7DDF800E054
:0415A80001B07047D7
:100A6C0083B0CDF800E08DB20146D0B2BDF90C20B8
:100A7C0001F0010414B12F02BFB200E0AFB28F4CF1
:100A8C000C1B640965018D4C6419A0468C4CA0426A
:100A9C0007D108F10406FD43ADB234882C403480F4
:100AAC0007E0884CA04204D108F104052C883C4393
:100ABC002C8040F2010403EA0404A4B23CB108F116
:100ACC000606FD43ADB234882C4034800AE040F277
:100ADC00020403EA0404A4B224B108F106052C882C
:100AEC003C432C8040F2040403EA0404A4B23CB15D
:100AFC0008F10806FD43ADB234882C4034800AE07E
:100B0C0040F2080403EA0404A4B224B108F1080575
:100B1C002C883C432C8040F2100403EA0404A4B259
:100B2C003CB108F11806FD43ADB234882C4034803A
:100B3C000AE040F2200403EA0404A4B224B108F150
:100B4C0018052C883C432C8040F2400403EA040432
:100B5C00A4B23CB108F11A06FD43ADB234882C4066
:100B6C0034800AE040F2800403EA0404A4B224B105
:100B7C0008F11A052C883C432C8003F48074A4B231
:100B8C007CB908F10A06FD43ADB234882C403480A0
:100B9C0008F10C06FD43ADB234882C4034800020A3
:100BAC0087E01F2A01DD012083E0FFF70BFB00200B
:100BBC00B9B2C7B24046102F80F07A8021FA07F400
:100BCC00A4B204F00104A4B2002C00F06E8000F278
:100BDC000A06CD43ADB234882C40348000F20C06AA
:100BEC00CD43ADB234882C40348003F48064A4B27D
:100BFC002CB1ADF806100024ADF808400DE003F45C
:100C0C000064A4B22CB10024ADF80640ADF8081075
:100C1C0003E0ADF80610ADF8081000F20A063588AE
:100C2C00BDF8064045EA0404348000F20C06358811
:100C3C00BDF8084045EA04043480234C041B6409C5
:100C4C00ADF80440214CA24218D0BDF80440E40099
:100C5C00A4B265001E4C65197C08E4B264002E1920
:100C6C0007F00104E4B2E5002DB240F2FF04AC4001
:100C7C00A4B2E543ADB234882C403480BDF80440B6
:100C8C00E400A4B26500124C65197C08E4B264005F
:100C9C002E1907F00104E4B2E5002DB294B204FA67
:100CAC0005F5ADB234882C4334807F1CFFB282E74B
:100CBC000020DDF800E003B0704700BF004C00409E
:100CCC000000000001000000004C0040000000008B
:040CDC00085000407C
:1001D00081B042F652510348018002210248018059
:0C01E00001B07047005000400250004089
:1011B40081B00122018862F30001018001B070470F
:1011D80081B003884FF63F7203EA02020280028858
:0811E8000A43028001B07047C8
:1012000081B08BB2028863F30412028001B0704790
:1012D00081B00022018862F30001018001B07047F3
:1011C40081B000F22C04CB439BB222881A402280C7
:0411D40001B07047AF
:1011F00081B000F22A031A880A431A8001B07047AE
:101CB00081B0CDF800E0011D0A68016808461146B0
:101CC000034AFFF77DFE0020DDF800E001B0704719
:041CD000C426000026
:101C200081B0CDF800E0011D0A6801680846114640
:101C3000034AFFF7C5FE0020DDF800E001B0704761
:041C4000C4260000B6
:101C440081B0CDF800E0011D0A680168084611461C
:101C5400034AFFF735FE0020DDF800E001B07047CD
:041C64003024000028
:1018C40081B0CDF800E013460A4601460348FFF70D
:1018D4001DFFDDF800E001B0704700BF00240040A8
:101BFC0081B0CDF800E0011D0A6801680846114665
:101C0C00034AFFF759FE0020DDF800E001B07047F1
:041C1C003024000070
:101F480081B0CDF800E019E00846FFF789FE22E0ED
:101F58000846FFF797FE1EE00846FFF739FE1AE02D
:101F68000846FFF7DDFD16E00846FFF7C7FD12E05B
:101F78000846FFF7B1FD0EE001200CE00028E3D091
:101F88000128E5D00228E7D00328E9D00428EBD0BF
:0E1F98001028EDD0F0E7DDF800E001B0704752
:101C680081B0CDF800E0FFF7B7FE044A04490A60E6
:101C78000020DDF800E001B0704700BF4519000002
:041C880080000020B8
:1019E00081B0CDF800E084460B4A0C490A600C4AED
:1019F0000C490A600C4A0D490A600D4A0D490A60FB
:101A00000D48FFF789FD61460C48FFF7CFFDDDF873
:101A100000E001B0704700BF45190000B40000208D
:101A2000FFFFFFFFB8000020FFFFFFFFBC0000200A
:101A3000FFFFFFFFC00000200C2500000010004049
:1015AC0081B0CDF800E007460C463846FFF782FEC6
:1015BC0040F280013846FFF73FFC40F2000138460C
:1015CC00FFF746FC40F200013846FFF7FFFB40F204
:1015DC0000013846FFF70AFC40F200013846FFF7DD
:1015EC0045FC40F200013846FFF71EFD2146384607
:1015FC00FFF72AFD3846FFF70DFDDDF800E001B0DE
:02160C00704725
:0E12C00081B0018841F00101018001B070474A
:100E440081B003884FF63F7203EA020202800288EF
:080E54000A43028001B070475F
:100E5C0081B031B903884DF6FF7203EA02020280B9
:0C0E6C0002E002880A43028001B07047D7
:100DD80081B0B1F5006F03D102880A43028005E0B3
:100DE80003884FF2FF7203EA0202028001B07047E3
:100DF80081B019E0038847F6FF7203EA0202028015
:100E080019E0028842F40042028002880A43028004
:100E180011E0028842F40042028003884BF6FF7218
:100E280003EA0202028006E00029E3D0B1F5804F10
:0A0E3800E7D00029EDD001B07047AB
:100E780081B0B1F5807F04D1028842F4807202808B
:100E880005E003884FF6FF6203EA0202028001B020
:020E98007047A1
:1010340081B0B1F5805F03D102880A43028005E0E4
:1010440003884EF6FF7203EA0202028001B0704781
:1010540088B0CDF800E005460E4604AA104600F01C
:10106400D5F804AA11462846FFF790FE00EE900A30
:10107400F8EE600A00EE106AB8EE400A80EE800ACC
:10108400B0EE401A01AA1046FFF728FEDDED010A72
:10109400FCEE600A10EE902A92B291B2414A00EE40
:1010A400902A20EE200ABCEE400A10EE100A80B20C
:1010B40005F2080423884FF6FE7203EA0202228036
:1010C40010292ED905F208031A8842F001021A8069
:1010D400B3EE000A81EE000ABCEE400A10EE102ABC
:1010E40092B2ADF80820B3EE000AC1EE000AB3EEE6
:1010F400000A81EE000ABCEE400A10EE102A92B2F9
:1011040000EE102AB8EE400A70EEC00AB3EE000AF0
:1011140020EE800ABCEE400A10EE102A92B2ADF81E
:101124000A2020B90022ADF80C20284616E001243C
:101134002946242C11D263001B4AD21812889042EB
:1011440008D2621E12B25300184AD2181288ADF89F
:101154000C2002E0641CE4B2EBE70846831D002285
:101164001A80841D2388BDF8082043EA02022280E5
:1011740000F208031A8802F001021A8000F208043F
:10118400BDF80C2013029BB2BDF80A20120192B2E2
:1011940013439BB222881A432280DDF800E008B092
:1011A400704700BF00401C4600280000482800008B
:100D900081B0028802F0C00292B2920992B290B27F
:100DA0000AB900200EE0012802D10A68104609E0C5
:100DB000022802D0032800D004E001F20C021268DD
:080DC0001046FFE701B0704787
:100CE00082B08DED010A9DED010AB5EEC00AF1EE6C
:100CF00010FA0ADBDDED010AB7EE000AF4EEC00AD5
:100D0000F1EE10FA01DA012100E0002189B9DDEDF0
:100D1000010ABFEE000AF4EEC00AF1EE10FA07DD98
:100D20009DED010AB5EEC00AF1EE10FA00DC00E01C
:100D300008E04FF0000100EE101A00ED000A9DEDF2
:100D4000010A23E001A90968C90D01F0FF017F39FB
:100D500089B2182908D99DED010A00ED000A4FF06B
:100D6000000100EE101A11E09DED010ABDEE400AEF
:100D700010EE101A00EE101AB8EEC00A00ED000ACC
:100D800050ED000A9DED010A30EE600A02B0704796
:1010200081B002884FF6FE7102EA0101018001B031
:02103000704707
:101C8C0081B0CDF800E0FFF7A5FE044A04490A60D4
:101C9C000020DDF800E001B0704700BF45190000DE
:041CAC008000002094
:101BD80081B0CDF800E0FFF7BFFE044A04490A606F
:101BE8000020DDF800E001B0704700BF5D1A00007A
:041BF8008000002049
:1019600081B0CDF800E084460B4A0C490A600C4A6D
:101970000C490A600C4A0D490A600D4A0D490A607B
:101980000D48FFF7C9FD61460C48FFF70FFEDDF873
:1019900000E001B0704700BF5D1A0000B4000020F5
:1019A000FFFFFFFFB8000020FFFFFFFFBC0000208B
:1019B000FFFFFFFFC0000020E825000000140040EA
:101B280081B0CDF800E0FFF717FF044A04490A60C6
:101B38000020DDF800E001B0704700BF5D1A00002A
:041B480080000020F9
:101B040081B0CDF800E0FFF7EBFE044A04490A6017
:101B14000020DDF800E001B0704700BF791A000032
:041B2400800000201D
:1018E40081B0CDF800E084460B4A0C490A600C4AEA
:1018F4000C490A600C4A0D490A600D4A0D490A60F8
:101904000D48FFF707FE61460C48FFF74DFEDDF872
:1019140000E001B0704700BF791A0000B400002055
:10192400FFFFFFFFB8000020FFFFFFFFBC00002007
:10193400FFFFFFFFC00000205423000000180040F8
:101AE00081B0CDF800E0FFF7FDFE044A04490A602A
:101AF0000020DDF800E001B0704700BF791A000057
:041B00008000002041
:101FFC0083B0CDF800E0024610460D228DF8082083
:10200C000A228DF809201FE0FFF79AFD23E00278E1
:10201C002AB10190FFF794FD0198401CF7E71AE0F4
:10202C0002782AB10190FFF78BFD0198401CF7E76D
:10203C0002AA1046FFF784FD0DF109021046FFF7C6
:10204C007FFD08E0062007E00029DDD00129DED065
:10205C000229E5D0F6E70020DDF800E003B0704778
:101B4C0081B0CDF800E00178CCB2A0B2034C24688F
:101B5C00A0470020DDF800E001B0704780000020B5
:1019440081B0CDF800E081B20348FFF7B9FEDDF8BD
:0C19540000E001B0704700BF0010004030
:1016C40081B0ADF800100146BDF8000001F20A0235
:1016D400128802F0010292B202B1F7E701F20E029F
:0616E400108001B0704708
:101A5C0081B0CDF800E081B20348FFF72DFEDDF830
:0C1A6C0000E001B0704700BF0014004013
:101A780081B0CDF800E081B20348FFF71FFEDDF822
:0C1A880000E001B0704700BF00180040F3
:101A400081B0CDF800E081B20348FFF73BFEDDF83E
:0C1A500000E001B0704700BF001C004027
:10211C0081B0CDF800E05E2203490448FFF7D4FDFE
:10212C00DDF800E001B07047A8200000A0270000F7
:101CD40081B0CDF800E00446054B1A700846FFF7C2
:101CE4006BFF2046FFF764FFDDF800E001B07047AA
:041CF4002F0000209D
:101BBC0081B0026803490A60011D0A6802490A6083
:0C1BCC0001B07047840000208800002059
:061BB40081B001B0704792
:1021500081B0CDF800E0FFF7C5FE0E4800ED000AA3
:102160000D48FFF7C9FD0D480121FFF747FF022188
:102170000948FFF743FF41F6FD27C0F2B70700BF4C
:102180007F1EFDD100BF00BF00BF00BFDDF800E033
:1021900001B07047480000204C00002015000020CE
:101EE40082B0CDF800E00320FFF73EFEC1B201F05E
:101EF400F00080B2000181B2ADF804100620FFF7B3
:101F040033FEBDF8041041EA000080B200EE900AEE
:101F1400F8EE600A094800EE100A70EEC00A08489C
:101F240000EE100A60EE800AB3EE090A30EE800A71
:101F3400B0EE400ADDF800E002B070470000AA43AA
:041F4400CDCC8C3F35
:101B6C0082B0CDF800E001A90870FFF78BFE01AA46
:101B7C000C4909780023C8B211460122FFF788FEF0
:101B8C000DF10502074909780123C8B2114601225B
:101B9C00FFF766FE0DF105010978C8B2DDF800E02B
:081BAC0002B070472F00002079
:0C18900081B040F2000000B201B07047CF
:10189C0082B0CDF800E040F20004ADF80440054CF5
:1018AC002468A047BDF90440044320B2DDF800E0F1
:0818BC0002B070478400002017
:1016EC0081B0CDF800E008B413460A46C1B20448F4
:1016FC00FFF7CEFB01B0DDF800E001B0704700BF92
:04170C000020004079
:100E9C0087B0CDF800E08DF8041001469DF80400F1
:100EAC0005920693079C07944C4CA1420AD14C4DD9
:100EBC002C6803942C46246804944A4C25684A4CAC
:100ECC00256028E0494CA1420AD1494D2C68039475
:100EDC002C4624680494474C2568434C25601AE042
:100EEC00454CA1420AD1454D2C6803942C462468EC
:100EFC000494434C25683C4C25600CE0414CA142C9
:100F0C0009D1414D2C6803942C46246804943F4C21
:100F1C002568354C256001910291C1B20298FFF70A
:100F2C0049FC01993A4C247854B9019108460121A5
:100F3C00FFF7FAFA019908B101204BE00D461FE0CA
:100F4C0001250C8865F304140C8008460588C5F34C
:100F5C0080046CB1049C54B1039C2CB90720224C26
:100F6C002468A047012035E0039C641E0394EDE740
:100F7C00048844F0020404800025254C25700546A5
:100F8C0000262A463146069CA14214D2059C6418C0
:100F9C00247801920291E1B21046FFF771FB02999D
:100FAC00019A20B11046FFF7F3FB012012E04C1C14
:100FBC0026463146E7E7079C012C07D11046FFF780
:100FCC00E7FB002801D0012004E002E00125104CD1
:100FDC0025700020DDF800E007B0704700200040CD
:100FEC0030000020900000208C00002000240040E5
:100FFC00340000209400002000280040380000201D
:10100C0098000020002C00403C0000209C00002098
:04101C002E00002082
:100DC80081B00249087001B0704700BF60880942CD
:1009280081B00249087001B0704700BF608C09426D
:1004040081B00249087001B0704700BF50800942B2
:1004140081B00249087001B0704700BF548009429E
:1004240081B00249087001B0704700BF5C80094286
:1003F40081B00249087001B0704700BF58800942BB
:1003C40081B00249087001B0704700BF74800942CF
:1003D40081B00249087001B0704700BF60800942D3
:1003E40081B00249087001B0704700BF48800942DB
:1004340081B00249087001B0704700BF4C80094286
:1004840081B00249087001B0704700BF5C84094222
:1004940081B00249087001B0704700BF5884094216
:1004A40081B00249087001B0704700BF6C840942F2
:1004740081B00249087001B0704700BF648C094222
:1004440081B00249087001B0704700BF4888094272
:1004540081B00249087001B0704700BF548009425E
:1004640081B00249087001B0704700BF5C80094246
:1003B40081B00249087001B0704700BF58800942FB
:1003040081B00249087001B0704700BF788009428B
:1002F40081B00249087001B0704700BF64800942B0
:1003240081B00249087001B0704700BF488009429B
:1003140081B00249087001B0704700BF4C800942A7
:1002C40081B00249087001B0704700BF5C840942E4
:1002E40081B00249087001B0704700BF58840942C8
:1003340081B00249087001B0704700BF4488094287
:1003A40081B00249087001B0704700BF5888094203
:1003740081B00249087001B0704700BF408809424B
:1003440081B00249087001B0704700BF548009426F
:1003540081B00249087001B0704700BF5C80094257
:1003640081B00249087001B0704700BF588009424B
:1003940081B00249087001B0704700BF7C800942F7
:1003840081B00249087001B0704700BF7080094213
:1002D40081B00249087001B0704700BF68800942CC
:1008780081B00249087001B0704700BF6C8009421E
:1008880081B00249087001B0704700BF5C8409421A
:1008980081B00249087001B0704700BF588409420E
:1008680081B00249087001B0704700BF4C88094246
:1008380081B00249087001B0704700BF788809424A
:1008480081B00249087001B0704700BF788409423E
:1008580081B00249087001B0704700BF5490094246
:1008A80081B00249087001B0704700BF58900942F2
:1008F80081B00249087001B0704700BF5C9009429E
:1009080081B00249087001B0704700BF7090094279
:1009180081B00249087001B0704700BF40840942A5
:1008E80081B00249087001B0704700BF68800942B2
:1008B80081B00249087001B0704700BF6C800942DE
:1008C80081B00249087001B0704700BF74880942BE
:1008D80081B00249087001B0704700BF70880942B2
:1008280081B00249087001B0704700BF5088094282
:1004F40081B00249087001B0704700BF7C8809428E
:1005040081B00249087001B0704700BF50900942A1
:1005140081B00249087001B0704700BF549009428D
:1004E40081B00249087001B0704700BF58900942BA
:1004B40081B00249087001B0704700BF5C900942E6
:1004C40081B00249087001B0704700BF74900942BE
:1004D40081B00249087001B0704700BF5C880942CE
:1005240081B00249087001B0704700BF4884094295
:1007F80081B00249087001B0704700BF4C840942BB
:1008080081B00249087001B0704700BF748809427E
:1008180081B00249087001B0704700BF7088094272
:1007C00081B000F2140212888A420FD000F21602A1
:1007D00012888A420AD000F2180212888A4205D092
:1007E00000F21A0212888A4200D000E002E000F211
:0807F0002002118001B07047E6
:1005340085B0CDF800E0CCB20146464A91420AD1DA
:10054400454B1A6803921A4612680492434A136888
:10055400434A136028E0434A91420AD1424B1A6845
:1005640003921A4612680492404A13683C4A136084
:100574001AE03F4A91420AD13E4B1A6803921A4646
:10058400126804923C4A1368354A13600CE03B4AF3
:10059400914209D13A4B1A6803921A46126804929E
:1005A400384A13682E4A13608DF8044002910846B5
:1005B400FFF71AFE02999DF8044008B1012044E0B7
:1005C400E3B20A8863F304120A800A8842F0020242
:1005D4000A80012C1CD1084600F22C021388C3F3B4
:1005E40040026AB9049A52B1039A2AB906201C4CF3
:1005F4002468A047012028E0039A521E0392EBE7E7
:1006040000F22C040023228863F3410222801BE0C1
:10061400084600F22C021388C3F300026AB9049A54
:1006240052B1039A2AB906200D4C2468A047012030
:100634000BE0039A521E0392EBE700F22C04002312
:10064400228863F3000222800020DDF800E005B078
:10065400704700BF002000403000002090000020C0
:100664008C0000200024004034000020940000206E
:10067400002800403800002098000020002C004092
:080684003C0000209C00002056
:1001EC0083B0CDF800E0274988420AD1264A11682D
:1001FC00019111460968029124490A6824490A6050
:10020C0028E0244988420AD1234A116801911146F9
:10021C000968029121490A681D490A601AE02049BF
:10022C0088420AD11F4A116801911146096802914E
:10023C001D490A6816490A600CE01C49884209D11C
:10024C001B4A1168019111460968029119490A6803
:10025C000F490A6003461846FFF74CFF68B902992C
:10026C0051B1019929B90520094C2468A0470120F6
:10027C0004E00199491E0191EDE70020DDF800E052
:10028C0003B0704700200040300000209000002098
:10029C008C0000200024004034000020940000203A
:1002AC00002800403800002098000020002C00405E
:0802BC003C0000209C00002022
:1001000081B000F208010A88C2F3001181F00101F8
:08011000C9B2C8B201B070478A
:10068C0083B0CDF800E0354A90420AD1344B1A6859
:10069C0001921A4612680292324A1368324A136067
:1006AC0028E0324A90420AD1314B1A6801921A461C
:1006BC00126802922F4A13682B4A13601AE02E4AD2
:1006CC0090420AD12D4B1A6801921A461268029276
:1006DC002B4A1368244A13600CE02A4A904209D131
:1006EC00294B1A6801921A4612680292274A13681B
:1006FC001D4A136000F22C021388C3F3401232B16E
:10070C0000F22C040023228863F34512228000F2AD
:10071C000E02118000F22C021388C3F340026AB956
:10072C00029A52B1019A2AB904200F4C2468A047AE
:10073C0001200FE0019A521E0192EBE700F22C040B
:10074C000023228863F34102228000F22C021388DA
:10075C00C3F34010DDF800E003B070470020004008
:10076C0030000020900000208C000020002400406D
:10077C0034000020940000200028004038000020A5
:10078C0098000020002C00403C0000209C00002021
:10079C0081B0CDF800E00122018862F38201018072
:1007AC00FFF71EFD08B1012000E00020DDF800E09D
:0407BC0001B07047D1
:1018240081B0CDF800E008B413460A46C1B20448BA
:10183400FFF732FB01B0DDF800E001B0704700BFF4
:04184400002400403C
:1016580081B0CDF800E008B413460A46C1B2044888
:10166800FFF718FC01B0DDF800E001B0704700BFDB
:041678000028004006
:1016340081B0CDF800E008B413460A46C1B20448AC
:10164400FFF72AFC01B0DDF800E001B0704700BFED
:04165400002C004026
:10186C0082B0CDF800E040F20004ADF80440044C26
:10187C002468A047BDF90400DDF800E002B0704711
:04188C0088000020B0
:10167C0081B0CDF800E008B413460A46C1B2044864
:10168C00FFF728FE01B0DDF800E001B0704700BFA5
:04169C0000200040EA
:1012E00087B0CDF800E08DF8041001469DF80400A9
:1012F000079E7B4CA1420AD17A4D2C6805942C465E
:1013000024680694784C2568784C256028E0784C51
:10131000A1420AD1774D2C6805942C462468069486
:10132000754C2568714C25601AE0744CA1420AD1B5
:10133000734D2C6805942C4624680694714C2568DE
:101340006A4C25600CE0704CA14209D16F4D2C68AD
:1013500005942C46246806946D4C2568634C2560E2
:10136000019202910391C1B20398FFF729FA029901
:10137000019A684C24787CB90196029303920491F7
:1013800008460021FFF7D6F80499039A029B019EB4
:1013900000B1A0E0304661E000250C8865F304143C
:1013A0000C80012B39D130460D88C5F3800464B11F
:1013B000069C4CB1059C24B907204C4C2468A047DE
:1013C00089E0059C641E0594EEE7069C05940C8854
:1013D00044F002040C80019111461A46034601981C
:1013E0000588C5F3400464B1069C4CB1059C24B942
:1013F00006203E4C2468A0476DE0059C641E0594C1
:10140000EEE7069C0594048844F0040404800192ED
:101410000A4601461846019B1DE001930B463046E3
:1014200001991D88C5F3800464B1069C4CB1059CEC
:1014300024B907202D4C2468A0474CE0059C641E6D
:101440000594EEE7069C05941C8844F002041C8079
:1014500001930B46019900252E4C25705C1E2346F6
:1014600001931346019A002A31DB01F22C042588EE
:10147000C5F3000464B9069C4CB1059C24B9032053
:101480001A4C2468A04726E0059C641E0594ECE7EE
:1014900016E001F20C0424881C705B1C15E0012589
:1014A0000C8865F382040C8001F20C0424881C7003
:1014B0005B1C0AE001F20C0424881C705B1C04E035
:1014C000002AE6D0012AEAD0F4E7521ECBE710B991
:1014D0000125104C2570DDF800E007B0704700BF13
:1014E0000020004030000020900000208C000020F0
:1014F0000024004034000020940000200028004018
:101500003800002098000020002C00403C00002003
:081510009C0000202E000020C9
:1016A00081B0CDF800E008B413460A46C1B2044840
:1016B000FFF716FE01B0DDF800E001B0704700BF93
:0416C00000240040C2
:1016100081B0CDF800E008B413460A46C1B20448D0
:10162000FFF75EFE01B0DDF800E001B0704700BFDB
:04163000002800404E
:1018480081B0CDF800E008B413460A46C1B2044896
:10185800FFF742FD01B0DDF800E001B0704700BFBE
:04186800002C004010
:101CF80083B0CDF800E00446002000235BB28DEDF0
:101D0800020A0299B1F1FF3F05D170492046FFF759
:101D1800BDFE0320D5E0012502A9C91C097801F000
:101D28008001C9B269B102A9CA1C117881F0800189
:101D38001170691CCAB22D212170641CD7B22646C5
:101D480001E02646EFB2029929B961493046FFF70A
:101D58009DFE0020B5E00299B1F1FF4F05D15D4924
:101D68003046FFF793FEF8B2ABE08DF80430C3B20B
:101D780034469DF90400DDED020AB7EE000AF4EEE0
:101D8800C00AF1EE10FA0ADADDED020AB2EE040A30
:101D980020EE800A8DED020A401E40B2EBE7DDED31
:101DA800020AB2EE040AF4EEC00AF1EE10FA0BDBF6
:101DB800DDED020A484900EE101A20EE800A8DED8A
:101DC800020A401C40B2EAE702994900029102A9BE
:101DD800C91C09787F39CDB202A9CA1C012111702A
:101DE8000299A940029102A9C91C097830312170D1
:101DF800621C012803DB062801DC154603E02E21BE
:101E08001170551C0123062144B2C8B210B302A9AF
:101E1800CA1C0021117002998A000299891802913E
:101E280002994900029102A9C91C09783031297028
:101E38006D1C63B9611E49B24AB221B92E212970BD
:101E48006D1C012100E0D9B254B2CBB2FFE7401EAD
:101E5800C0B2DBE72A4660B2511E0978302901D1A9
:101E6800521EF9E7511E09782E2901D1521EFFE7AB
:101E780018B365211170521C002806DA2D21117043
:101E8800521C414248B243B200E043B2D8B2D9B280
:101E9800092907D90A21B0FBF1F1C9B23031117013
:101EA800531C00E013460A22B0FBF2F102FB1101B9
:101EB800C9B230311970581C00E010460021017079
:101EC8000020DDF800E003B0704700BF24000020C8
:0C1ED800280000202A000020CDCCCC3DCA
:101A940081B00091014600980B461C465A1C15461D
:101AA4000346421C10461A78227022780AB12B464B
:081AB400F3E7084601B070479A
:1022100083B0CDF800E0374B374C384D384E394F4E
:10222000394845F680213948018004F00700052827
:1022300004D004F07000502800D00BE0012252B20C
:1022400033480280002149B232480180324802807E
:1022500032480180802132480160019502961E4675
:1022600025463A46029B019C2E48006800F4807087
:1022700000B1F9E72C492D4801600195114632461D
:102280001D46019B2748006800F4807000B1F9E703
:1022900027480160274801602749284801602848ED
:1022A000026028480360200D00F0070028B944F0C0
:1022B0000301254801602A4610E044F4803040F0D4
:1022C0000301214801602A462048006830B1FFF729
:1022D00017FF012149B21E480160F5E700211748A8
:1022E000016042F4B44109480180DDF800E003B028
:1022F000704700BF0000050033000000030001002C
:10230000840000000010000080BB00000C4800406A
:102310004CA509428CA5094248A5094288A5094255
:10232000143004E00400014001005A69000001403B
:1023300010100140141001405A69000000040140CF
:1023400004040140080401400C04014004892042B7
:04235000048A204299
:1021000081B040F20907C0F2000700BF7F1EFDD179
:0C21100000BF00BF00BF00BF01B070475F
:1021D40081B002490248016001B0704780BB000031
:0421E400B000002027
:0821A00081B0FEE701B07047B9
:1021A80081B04EF68850CEF20000016841F470010B
:1021B800016000BF00BF00BF00BFF1EE100A40F48D
:0A21C8004000E1EE100A01B070477C
:1028D80000B5DFF824B0DFF824A0DFF824C0FFF744
:1028E80029FCDFF820B0DFF820A0DFF820C0FFF7D0
:1028F80021FC00BD704700BF000000202F00002011
:10290800902800003000002048000020C028000067
:1029740000B5DFF810B0DFF810A0FFF775FB00BD5D
:0C298400704700BF00000020C4000020CD
:0820A80059160000111600009A
:0820F800A08601008000000039
:10235400204C00400400050500000000204C004013
:102364000800050500000000000000000000000057
:102374000000000000000000000000000000000059
:102384000000000000000000000000000000000049
:102394000000000000000000000000000000000039
:1023A4000000000000000000000000000000000029
:1023B4000000000000000000000000000000000019
:1023C4000000000000000000000000000000000009
:1023D40000000000000000000000000000000000F9
:1023E40000000000000000000000000000000000E9
:1023F40000000000000000000000000000000000D9
:1024040000000000000000000000000000000000C8
:1024140000000000000000000000000000000000B8
:0C242400000000000000000002000000AA
:10243000404C00400010000500000000404C0040EF
:102440000020000500000000000000000000000067
:10245000000000000000000000000000000000007C
:10246000000000000000000000000000000000006C
:10247000000000000000000000000000000000005C
:10248000000000000000000000000000000000004C
:10249000000000000000000000000000000000003C
:1024A000000000000000000000000000000000002C
:1024B000000000000000000000000000000000001C
:1024C000000000000000000000000000000000000C
:1024D00000000000000000000000000000000000FC
:1024E00000000000000000000000000000000000EC
:1024F00000000000000000000000000000000000DC
:0C250000000000000000000002000000CD
:10250C00004C00400400050500000000004C004099
:10251C00080005050000000000000000000000009D
:10252C00000000000000000000000000000000009F
:10253C00000000000000000000000000000000008F
:10254C00000000000000000000000000000000007F
:10255C00000000000000000000000000000000006F
:10256C00000000000000000000000000000000005F
:10257C00000000000000000000000000000000004F
:10258C00000000000000000000000000000000003F
:10259C00000000000000000000000000000000002F
:1025AC00000000000000000000000000000000001F
:1025BC00000000000000000000000000000000000F
:1025CC0000000000000000000000000000000000FF
:0C25DC00000000000000000002000000F1
:1025E800004C00400004050500000000004C0040BD
:1025F80000080505000000000000000000000000C1
:1026080000000000000000000000000000000000C2
:1026180000000000000000000000000000000000B2
:1026280000000000000000000000000000000000A2
:102638000000000000000000000000000000000092
:102648000000000000000000000000000000000082
:102658000000000000000000000000000000000072
:102668000000000000000000000000000000000062
:102678000000000000000000000000000000000052
:102688000000000000000000000000000000000042
:102698000000000000000000000000000000000032
:1026A8000000000000000000000000000000000022
:0C26B80000000000000000000200000014
:1026C400204C00404000000500000000204C004069
:1026D4008000000500000000000000000000000071
:1026E40000000000000000000000000000000000E6
:1026F40000000000000000000000000000000000D6
:1027040000000000000000000000000000000000C5
:1027140000000000000000000000000000000000B5
:1027240000000000000000000000000000000000A5
:102734000000000000000000000000000000000095
:102744000000000000000000000000000000000085
:102754000000000000000000000000000000000075
:102764000000000000000000000000000000000065
:102774000000000000000000000000000000000055
:102784000000000000000000000000000000000045
:0C27940000000000000000000200000037
:1027A000C90D0000290900000504000015040000FF
:1027B00025040000F5030000C5030000D503000058
:1027C000E5030000350400008504000095040000C6
:1027D000FFFFFFFFFFFFFFFFFFFFFFFFFFFFFFFF09
:1027E000FFFFFFFFFFFFFFFFFFFFFFFFFFFFFFFFF9
:1027F000FFFFFFFFFFFFFFFFFFFFFFFFFFFFFFFFE9
:1028000000001102CB024303E903E40496058606A7
:102810006308B008C709B80B070DF70DA90EA30F81
:10282000BE101A118A13531673176E1820190B1A3B
:10283000591BEB1B4F1DB51E441F8D2010217C2101
:082840002F222C23D22348248F
:102848000000010002000400080010002000110030
:10285800210022004400250049004A00520092004D
:1028680053005500AA006B00AD00B500B600D600B5
:10287800B700BB00DD00ED00EE00BF00DF00EF0099
:08288800F700FB00FD00FE005B
:102890002D2D2D2053797374656D20496E69742038
:1028A0002D2D2D2D002054656D706572617475722B
:0428B00065203A0065
:0428B4004E614E0023
:0228B8003000EE
:0428BA00494E46003D
:0128BE000019
:0428C0000000000014
:0428C4000000000010
:0428C800000000000C
:0428CC000000000008
:0428D00010270000CD
:0428D40000366E015B
:00000001FF
